:020000040800F2
:10000000000A00209D010008B93C0108CDB4000899
:10001000B53C0108290D00089D9A01080000000068
:10002000000000000000000000000000095101086D
:10003000D921000800000000C93C0108A5560108AC
:10004000B7010008B7010008B7010008B7010008B0
:10005000B7010008B7010008B7010008B7010008A0
:1000600035270008B701000861270008792100083A
:10007000B7010008B7010008B7010008B701000880
:1000800085210008B7010008B7010008B701000882
:10009000B7010008B7010008B70100089927000858
:1000A000B7010008B7010008B7010008B701000850
:1000B000B7010008B701000801570108B70100089F
:1000C000B7010008B7010008B7010008B14B0108EB
:1000D000B7010008B7010008B7010008B701000820
:1000E00011270008B7010008B7010008B701000890
:1000F000B7010008B7010008B7010008B701000800
:10010000B7010008B701000841570108B70100080E
:10011000B7010008B70100087D570108B55901086B
:10012000912100089D210008A9210008B52100089F
:10013000B7010008B7010008B7010008B7010008BF
:10014000B7010008B7010008B7010008BD3C01086D
:10015000B7010008C1210008B7010008B9750108FE
:10016000B7010008B7010008B7010008B70100088F
:10017000B7010008B7010008B7010008000000003F
:10018000B7010008B7010008DFF80CD000F0F6FC5A
:100190000048004759EC0108000A00200648804743
:1001A00006480047FEE7FEE7FEE7FEE7FEE7FEE75C
:1001B000FEE7FEE7FEE7FEE7A95601088901000811
:1001C0002DE9F05F0546002092469B46884606468C
:1001D000814640241BE0284641464746224600F01F
:1001E000EBFA53465A46C01A914110D311461846AD
:1001F000224600F0D2FA2D1A67EB01084F4622463C
:100200000120002100F0C9FA17EB00094E41201E21
:10021000A4F10104DFDC484631462A464346BDE8E6
:10022000F09F40EA01039B0703D009E008C9121FB1
:1002300008C0042AFAD203E011F8013B00F8013BA0
:10024000521EF9D27047D2B201E000F8012B491ECC
:10025000FBD270470022F6E710B513460A46044663
:100260001946FFF7F0FF204610BD421E12F8013F6D
:10027000002BFBD111F8013B02F8013B002BF9D117
:10028000704730B505462A460B4612F8010B13F8A5
:10029000014B08B1A042F8D01CB1002802D06D1C5F
:1002A000F1E7284630BD10B5044604E00B7800F8AD
:1002B000013B03B1491C521EF8D2204610BDCAB200
:1002C000401E10F8011F8A4202D00029F9D10020F7
:1002D0007047421C10F8011B0029FBD1801A70479F
:1002E00030B504460020034600E05B1C934203D275
:1002F000E05CCD5C401BF8D030BD034611F8012B0B
:1003000000F8012B002AF9D11846704770B506464F
:1003100022F002FD046805460A220021304600F062
:100320006DFA2C6070BD2DE9FE4F804681EA030016
:10033000C00F0C46009021F0004123F00045B8EBBF
:100340000200A94105D24046214690461C460B4674
:10035000024623F00040104347D0270DC7F30A00A0
:10036000C3F30A510290401A019040286BDAC3F39C
:10037000130040F4801B0098924620B10023D2EB7A
:10038000030A63EB0B0B01985946C0F1400250463B
:1003900000F003FA06460D4650465946019A00F011
:1003A0001BFA10EB08006141002487EA115284EA2D
:1003B000E7731A4340D0009A62B3019A012A4FEAC8
:1003C000075215DC001B61EB02014FF0004202EA0C
:1003D0000752CDE90042001C41F5801132462B4600
:1003E00000F08AFA03B0BDE8F08F40462146F9E7F5
:1003F000001B61EB0201001C41F5801300185B41FA
:100400002018A2F5001747EB030140EAD570B61992
:100410006D4111E06D084FEA360645EAC0754FEAB6
:100420000752001B61EB0201001C41F580114908D5
:100430004FEA30000019514132462B4603B0BDE867
:10044000F04F00F04ABA0098012240000023D0EBA0
:10045000020263EBE073009821464FEAE074B8EBC8
:10046000000061EB0401E9E783F000435BE781F002
:10047000004158E72DE9FE4F81EA030404F00044EF
:1004800021F0004100944FF0000B23F0004350EAAC
:1004900001045ED052EA03045BD0C3F30A54C1F3F3
:1004A0000A552C44A4F2F3340194A0FB0254C1F386
:1004B000130141F48011C3F3130343F4801301FBD0
:1004C000024400FB034E840A970A44EA815447EA37
:1004D0008357A4FB076802958D0A05FB07854FEA41
:1004E000932C04FB0C542705029D4FEA065847EA5B
:1004F0001637B5EB08056EEB070C870E920E47EA30
:10050000811742EA8312A7FB0201B6EB0B0164EBF1
:1005100000042B0D43EA0C335E1844EB1C50DA4602
:100520005146E7FB0201C5F313044FEA0B3343EADC
:1005300014534FEA0432019C43EA0603A4F10C046D
:100540000294009CCDE900B400F0D6F903B0BDE8F8
:10055000F08F00200146F9E72DE9F04D81EA030410
:1005600004F0004B21F0004514464FF0000A23F040
:10057000004150EA050220D054EA01021DD0C5F323
:100580000A570246C5F31303C1F31300C1F30A5619
:1005900040F4801543F48013A7EB0608101BD646E1
:1005A00008F2FD3873EB050002D308F1010801E001
:1005B00092185B41B8F1000F03DA00200146BDE854
:1005C000F08D00204FF48011064684460EE0171B84
:1005D00073EB050705D3121B63EB050306434CEAD7
:1005E000010C49084FEA300092185B4150EA0107BC
:1005F000EDD152EA030012D082EA040083EA050139
:10060000084305D0101BAB4106D20122002306E0AF
:1006100000224FF0004302E06FF0010253101AEB8A
:1006200006004CEB085110EB0A0041EB0B01BDE852
:10063000F04D00F052B930B5041E71F1000404DB36
:100640004FF00044404264EB0101141E73F10004BA
:1006500005DB1C464FF00043524263EB0403801A53
:10066000994101D3012030BD002030BD30B5041EBA
:1006700071F1000404DB4FF00044404264EB0101DF
:10068000141E73F1000405DB1C464FF00043524278
:1006900063EB0403101A8B4101D3012030BD00200D
:1006A00030BD0EB5C10F80EAE0700844CA070021D2
:1006B00040F233438DE80E000A460B4600F01CF969
:1006C00003B000BD0EB540F2334102910021CDE9E7
:1006D00000110A460B4600F00FF903B000BDC1F34C
:1006E0000A5210B5C1F3130140F2FF3341F48011F7
:1006F0009A4201DA002010BD40F233439A42A2F23E
:10070000334203DC524200F057F810BD904010BD58
:1007100000F0004230F000400AD0C10D01F56071D8
:10072000C0F3160042EA0151C20840071143704766
:1007300000200146704701F0004330B421F0004131
:1007400050EA010206D00A0DA2F56072C1F313014E
:10075000002A02DC30BC00207047440F44EAC10488
:10076000C100E01830BC00EBC25000F07FB830B5DB
:100770000B46014600202022012409E021FA02F55F
:100780009D4205D303FA02F5491B04FA02F52844F9
:10079000151EA2F10102F1DC30BD202A04DB203A53
:1007A00000FA02F1002070479140C2F1200320FAC4
:1007B00003F3194390407047202A04DB203A21FAC2
:1007C00002F00021704721FA02F3D040C2F120026A
:1007D0009140084319467047202A06DBCB17203A80
:1007E00041FA02F043EAE07306E041FA02F3D04036
:1007F000C2F1200291400843194670472DE9F047A5
:1008000091460F4680460446002614F8015B2DB140
:1008100000F0C6F90068405DC007F6D12B2D02D06C
:100820002D2D18D0641E4A463946204600F0BCF9EA
:1008300027B13968A14201D1C7F8008071054FF096
:1008400002040BD54042002803DD22F065FA046063
:10085000A007BDE8F08746F48066E4E70028F8DAF0
:1008600022F05AFA04606FF00040F2E70029A8BFB6
:100870007047401C490008BF20F00100704710B4C9
:10088000B0FA80FC00FA0CF050EA010404BF10BC7E
:10089000704749B1CCF1200421FA04F411FA0CF1AB
:1008A00018BF012121430843A3EB0C01CB1D4FEAE4
:1008B00000614FEA102042BF002010BC704700EBDF
:1008C000C35010440029A4BF10BC7047401C49000D
:1008D00008BF20F0010010BC704710B5141E73F162
:1008E000000408DA401C41F1000192185B411A43F0
:1008F00001D120F0010010BD2DE9F04D92469B463C
:1009000011B1B1FA81F202E0B0FA80F220329046E1
:10091000FFF743FF04460F4640EA0A0041EA0B0195
:1009200053465A46084313D0114653EA010019D0E2
:10093000C8F140025046FFF73FFF05460E465046BD
:1009400059464246FFF729FF084305D0012004E03D
:1009500020463946BDE8F08D0020054346EAE076A2
:100960002C4337430A986305E40AA0EB08000022F1
:10097000FD0A44EA47540A3002D500200146E9E75F
:10098000010510196941DDE9084500196941BDE813
:10099000F04DA2E770B521F0004303430CD0C1F342
:1009A0000A550024D5EB040564EB0403D617AD1AF1
:1009B000B34102DB0020014670BD201841EB02511B
:1009C00070BD2DE9F04D00231A461B1A8A4103DB46
:1009D00000200146BDE8F08DC1F30A52C1F31301B6
:1009E00041F480154FF0000BD10702D100186D4182
:1009F000521E0027044640F2FF11384601EB620AFE
:100A00003E468046024600204FF48011FFF7D4FE98
:100A1000C2197141BB1846EB0100B4EB030C75EB36
:100A2000000C04D3E41A65EB000517460E462419A2
:100A300008F101006D4180463428E3DDF91946EBE9
:100A40000600091BA84103D24FF0FF32134601E014
:100A5000002213461BEB070046EB0A51BDE8F04DA0
:100A6000FFF73BBF2DE9F041054621F000400C4661
:100A7000284309D0C4F30A5040F23341884205DDCF
:100A800028462146BDE8F0812846FBE740F2FE31CA
:100A9000884210DC0CDB4FEA043040EA155050EA83
:100AA000053105D0104804F0004101430020E9E77A
:100AB00000200146E6E7A0F233404642C6F140027C
:100AC00028462146FFF769FE074688462846214604
:100AD0003246FFF771FE43463A46FFF7FEFE3246C6
:100AE000BDE8F041FFF759BE0000F03FC1F30A52E4
:100AF000C1F3130140F2FF3341F480119A4202DA4C
:100B000000200146704740F233439A42A2F233423A
:100B100002DC5242FFF750BEFFF73FBE30B5041E65
:100B200071F1000404DB4FF00044404264EB01012A
:100B3000141E73F1000405DB1C464FF000435242C3
:100B400063EB04038B4208BF824230BD30B5041E04
:100B500071F1000404DB4FF00044404264EB0101FA
:100B6000141E73F1000405DB1C464FF00043524293
:100B700063EB0403994208BF904230BD064C074D19
:100B800006E0E06840F0010394E80700984710345D
:100B9000AC42F6D3FFF7FCFA74C00208B4C00208F6
:100BA000004870472C5402082DE9F05F8246007817
:100BB000002715468B460AF10104B946302801D0BA
:100BC0009DB113E014F8010B0127782803D05828B1
:100BD00001D045B10AE00DB1102D07D10027102535
:100BE00014F8010B02E0082500E00A250026B046B3
:100BF0000EE005FB080005FB06F1012701EB10469E
:100C00001FFA80F8B6F5803F00D3B94614F8010BFF
:100C1000294600F037F80028EBDABBF1000F05D0C9
:100C20000FB1641E00E05446CBF80040B9F1000F4C
:100C300006D022F071F802210160C81EBDE8F09FC5
:100C400048EA0640FAE770B5C1F30A5201F00045E0
:100C50000024C1F3130140F2FF3341F480119A42A2
:100C600001DA002070BD40F233439A42A2F23342CF
:100C700003DC5242FFF7A0FD00E090402C43F1D08E
:100C8000404270BD3A2800D2303820F02002412A7C
:100C900001D3A2F13700884201D34FF0FF307047F3
:100CA00070B58C1810F8015B15F0070301D110F82E
:100CB000013B2A1106D110F8012B03E010F8016B5B
:100CC00001F8016B5B1EF9D12B0705D40023521EDE
:100CD0000DD401F8013BFAE710F8013BCB1A921C46
:100CE00003E013F8015B01F8015B521EF9D5A14244
:100CF000D8D3002070BD00000020704710B54FF21F
:100D00005C640021C2F20004D4F8980201844DF220
:100D10005261C2F20001C161204616F07DFC2046FE
:100D200016F056FC002010BDFEE7000000207047C2
:100D300000207047B0B541F6DC454FF25C640022FC
:100D4000C2F20005C2F20004691C204616F0CCFC79
:100D500005F12101204616F0C1FC0020B0BD0000C5
:100D60002DE9F04F91B00DF1040A0C4606464021E2
:100D70005046FFF76FFA226850463146FFF793FA64
:100D8000206801383F2838D841F6DC4B4EF29436C3
:100D90004EF2D4384FF0000900200025C2F2000BBB
:100DA000C2F20006C2F200081AF8000000B39BF875
:100DB00000703B28F0550FD108EB0700C7F1400148
:100DC0003F2F88BF0021FFF745FA404631463A469B
:100DD000FFF727FA06E000BF781C8BF80000C0B2CE
:100DE000402805D3304640218BF80090FFF732FAB7
:100DF00001352168A8B28142D6D8002011B0BDE8E3
:100E0000F08F0000B0B541F680650FF64031032247
:100E1000C2F2000505F12C042046FFF761FA002814
:100E200000F0CD810FF6283120460522FFF758FA51
:100E3000002800F0D5810FF6203120460522FFF76B
:100E40004FFA002800F0DF8142F62D61E86AC0F217
:100E50002E01884200F0EA81A88D2E2800F0F98149
:100E60000FF6FC2120460522FFF73AFA002800F091
:100E7000038242F62D51E86AC0F22E01884200F04A
:100E80000E820FF6E42120460522FFF729FA0028FA
:100E900000F018820FF6D82120460322FFF720FA2F
:100EA000002800F022820FF6CC2120460522FFF711
:100EB00017FA002800F02C8242F62D61E86AC0F291
:100EC0002D01884200F037820FF6B021204605221E
:100ED000FFF706FA002800F041820FF6A82120460D
:100EE0000322FFF7FDF9002800F04B820FF698214E
:100EF00020460322FFF7F4F9002800F0558242F65D
:100F00002D51E86AC0F22D01884200F060820FF690
:100F10007C2120460522FFF7E3F9002800F06A82D1
:100F20000FF6702120460522FFF7DAF9002800F0BD
:100F3000748242F62E51E86AC0F22E01884200F017
:100F40007F8242F62E61E86AC0F22E01884200F0EC
:100F50008A82A88D2D2800F0998242F62E61E86AD7
:100F6000C0F22D01884200F0A4820FF63021204605
:100F70000522FFF7B5F9002800F0AE8242F62E51A7
:100F8000E86AC0F22D01884200F0B9820FF6142100
:100F900020460522FFF7A4F9002800F0C3820FF6CF
:100FA0000C2120460522FFF79BF9002800F0CD8296
:100FB0000FF6002120460522FFF792F9002800F0E5
:100FC000D7820FF6F81120460622FFF789F900288C
:100FD00000F0E1820FF6EC1120460622FFF780F9BF
:100FE000002800F0EB820FF6E41120460622FFF7FE
:100FF00077F9002800F0F5820FF6D8112046062276
:10100000FFF76EF9002800F0FF820FF6D01120469E
:101010000622FFF765F9002800F009830FF6C411D6
:1010200020460622FFF75CF9002800F013830FF634
:10103000BC1120460622FFF753F9002800F01D835B
:101040000FF6B01120460622FFF74AF9002800F0FB
:1010500027830FF6A81120460622FFF741F9002842
:1010600000F031830FF69C1120460622FFF738F975
:10107000002800F03B830FF6941120460722FFF76B
:101080002FF9002800F045830FF68811204607222B
:10109000FFF726F9002800F04F830FF68011204655
:1010A0000722FFF71DF9002800F059830FF674118D
:1010B00020460722FFF714F9002800F063830FF69B
:1010C0006C1120460722FFF70BF9002800F06D8312
:1010D0000FF6601120460722FFF702F9002800F002
:1010E00077830FF6581120460722FFF7F9F80028FA
:1010F00000F081830FF64C1120460622FFF7F0F82E
:10110000002800F08B830FF6441120460622FFF7DB
:10111000E7F8002800F095834AF6212120460722AF
:10112000C0F60201FFF7DCF8002800F09D834AF6C4
:10113000432120460622C0F60201FFF7D1F800281D
:1011400000F0A5834AF62F2120460822C0F60201AE
:10115000FFF7C6F8002800F0AD834AF628212046A4
:101160000722C0F60201FFF7BBF8002800F0B583A4
:101170004AF6372120460622C0F60201FFF7B0F8F2
:10118000002800F0BD834AF63D2120460622C0F625
:101190000201FFF7A5F8002818BFB0BD41F22000FA
:1011A000C2F2000000F108042046FFF792F80F2871
:1011B00003D32046012120F069FF7E25B4E341F2EC
:1011C0002000C2F2000000F108042046FFF781F879
:1011D0000F2816D32046012120F058FF4125A3E314
:1011E00041F22000C2F2000000F108042046FFF79F
:1011F00070F80F2818D32046012120F047FF422520
:1012000092E3412590E341F22000C2F2000000F198
:1012100008042046FFF75DF80F2818D32046012167
:1012200020F034FF43257FE342257DE341F2200097
:10123000C2F2000000F108042046FFF74AF80F2828
:1012400018D32046012120F021FF44256CE34325DB
:101250006AE341F22000C2F2000000F108042046D7
:10126000FFF737F80F2818D32046012120F00EFF92
:10127000452559E3442557E341F22000C2F200001E
:1012800000F108042046FFF724F80F2818D3204661
:10129000012120F0FBFE462546E3452544E341F2CB
:1012A0002000C2F2000000F108042046FFF711F808
:1012B0000F2818D32046012120F0E8FE472533E30C
:1012C000462531E341F22000C2F2000000F108049B
:1012D0002046FEF7FEFF0F2818D32046012120F0FC
:1012E000D5FE482520E347251EE341F22000C2F247
:1012F000000000F108042046FEF7EBFF0F2818D38A
:101300002046012120F0C2FE49250DE348250BE3CC
:1013100041F22000C2F2000000F108042046FEF76E
:10132000D8FF0F2818D32046012120F0AFFE4A2510
:10133000FAE24925F8E241F22000C2F2000000F191
:1013400008042046FEF7C5FF0F2818D320460121C8
:1013500020F09CFE4B25E7E24A25E5E241F2200021
:10136000C2F2000000F108042046FEF7B2FF0F2889
:1013700018D32046012120F089FE4C25D4E24B25CC
:10138000D2E241F22000C2F2000000F1080420463F
:10139000FEF79FFF0F2818D32046012120F076FE8C
:1013A0004D25C1E24C25BFE241F22000C2F200000F
:1013B00000F108042046FEF78CFF0F2818D32046C2
:1013C000012120F063FE4E25AEE24D25ACE241F254
:1013D0002000C2F2000000F108042046FEF779FF69
:1013E0000F2818D32046012120F050FE4F259BE204
:1013F0004E2599E241F22000C2F2000000F10804FB
:101400002046FEF766FF0F2818D32046012120F062
:101410003DFE502588E24F2586E241F22000C2F2CF
:10142000000000F108042046FEF753FF0F2818D3F0
:101430002046012120F02AFE512575E2502573E255
:1014400041F22000C2F2000000F108042046FEF73D
:1014500040FF0F2818D32046012120F017FE522507
:1014600062E2512560E241F22000C2F2000000F188
:1014700008042046FEF72DFF0F2818D3204601212F
:1014800020F004FE53254FE252254DE241F22000A8
:10149000C2F2000000F108042046FEF71AFF0F28F0
:1014A00018D32046012120F0F1FD54253CE25325BC
:1014B0003AE241F22000C2F2000000F108042046A6
:1014C000FEF707FF0F2818D32046012120F0DEFD8C
:1014D000552529E2542527E241F22000C2F20000FE
:1014E00000F108042046FEF7F4FE0F2818D320462A
:1014F000012120F0CBFD562516E2552514E241F2DC
:101500002000C2F2000000F108042046FEF7E1FED0
:101510000F2818D32046012120F0B8FD572503E2FB
:10152000562501E241F22000C2F2000000F1080459
:101530002046FEF7CEFE0F2818D32046012120F0CA
:10154000A5FD5825F0E15725EEE141F22000C2F259
:10155000000000F108042046FEF7BBFE0F2818D358
:101560002046012120F092FD5925DDE15825DBE1DF
:1015700041F22000C2F2000000F108042046FEF70C
:10158000A8FE0F2818D32046012120F07FFD5A2500
:10159000CAE15925C8E141F22000C2F2000000F181
:1015A00008042046FEF795FE0F2818D32046012197
:1015B00020F06CFD3125B7E15A25B5E141F220005C
:1015C000C2F2000000F108042046FEF782FE0F2858
:1015D00018D32046012120F059FD3225A4E1312500
:1015E000A2E141F22000C2F2000000F1080420460E
:1015F000FEF76FFE0F2818D32046012120F046FD8C
:10160000332591E132258FE141F22000C2F2000042
:1016100000F108042046FEF75CFE0F2818D3204690
:10162000012120F033FD34257EE133257CE141F2B8
:101630002000C2F2000000F108042046FEF749FE37
:101640000F2818D32046012120F020FD35256BE11D
:10165000342569E141F22000C2F2000000F10804E3
:101660002046FEF736FE0F2818D32046012120F031
:101670000DFD362558E1352556E141F22000C2F234
:10168000000000F108042046FEF723FE0F2818D3BF
:101690002046012120F0FAFC372545E1362543E1BB
:1016A00041F22000C2F2000000F108042046FEF7DB
:1016B00010FE0F2818D32046012120F0E7FC382522
:1016C00032E1372530E141F22000C2F2000000F1A2
:1016D00008042046FEF7FDFD0F2818D320460121FF
:1016E00020F0D4FC39251FE138251DE141F220000E
:1016F000C2F2000000F108042046FEF7EAFD0F28C0
:1017000018D32046012120F0C1FC30250CE13925F9
:101710000AE141F22000C2F2000000F10804204674
:10172000FEF7D7FD0F2818D32046012120F0AEFC8C
:101730003F25F9E03025F7E041F22000C2F2000039
:1017400000F108042046FEF7C4FD0F2818D32046F8
:10175000012120F09BFC2E25E6E03F25E4E041F24C
:101760002000C2F2000000F108042046FEF7B1FD9F
:101770000F2818D32046012120F088FC2C25D3E027
:101780002E25D1E041F22000C2F2000000F1080451
:101790002046FEF79EFD0F2818D32046012120F099
:1017A00075FC2125C0E02C25BEE041F22000C2F2EC
:1017B000000000F108042046FEF78BFD0F2818D327
:1017C0002046012120F062FC4025ADE02125ABE060
:1017D00041F22000C2F2000000F108042046FEF7AA
:1017E00078FD0F2818D32046012120F04FFC3A2520
:1017F0009AE0402598E041F22000C2F2000000F19A
:1018000008042046FEF765FD0F2818D32046012165
:1018100020F03CFC2D2587E03A2585E041F22000B0
:10182000C2F2000000F108042046FEF752FD0F2826
:1018300018D32046012120F029FC2F2574E02D2506
:1018400072E041F22000C2F2000000F108042046DC
:10185000FEF73FFD0F2818D32046012120F016FC8B
:10186000282561E02F255FE041F22000C2F2000050
:1018700000F108042046FEF72CFD0F2818D320465F
:10188000012120F003FC29254EE028254CE041F2FF
:101890002000C2F2000000F108042046FEF719FD06
:1018A0000F2818D32046012120F0F0FB5F253BE0F4
:1018B000292539E041F22000C2F2000000F10804BD
:1018C0002046FEF706FD0F2818D32046012120F000
:1018D000DDFB242528E05F2526E041F22000C2F24E
:1018E000000000F108042046FEF7F3FC0F2818D38F
:1018F0002046012120F0CAFB3E2515E0242513E0F7
:1019000041F22000C2F2000000F108042046FEF778
:10191000E0FC0F2807D32046012120F0B7FB3C252F
:1019200002E03E2500E03C2541F22000C2F200002A
:1019300000F108042046FEF7CCFC255241F6627007
:101940000121C2F20000C171B0BD00BF2E2D000008
:101950002D2E2E2E000000002D2E2D2E000000001A
:101960002E2E2D2E000000002E2E2E2E0000000008
:101970002E2E00002E2D2D2D000000002E2D2E2E9F
:10198000000000002D2D00002D2E00002E2D2D2EEC
:10199000000000002D2D2E2D000000002E2E2E2DDB
:1019A000000000002D2E2E2D000000002D2E2D2DCC
:1019B000000000002D2D2E2E000000002E2D2D2DBC
:1019C0002D0000002E2E2D2D2D0000002E2E2E2D50
:1019D0002D0000002E2E2E2E2D0000002E2E2E2E3D
:1019E0002E0000002D2E2E2E2E0000002D2D2E2E2E
:1019F0002E0000002D2D2D2E2E0000002D2D2D2D22
:101A00002E0000002D2D2D2D2D0000002E2E2D2D11
:101A10002E2E00002E2D2E2D2E2D00002D2D2E2EA3
:101A20002D2D00002D2E2D2E2D2D00002E2D2D2E96
:101A30002D2E00002D2D2D2E2E2E00002D2E2E2E83
:101A40002E2D00002D2E2E2D2E0000002D2E2D2DA2
:101A50002E00000080B52DED028B9FED0A8AB0EEBE
:101A6000480A1BF0C7F8B0EE480A19F0CFFD41F65E
:101A7000806030EE000AC2F2000080ED020ABDEC88
:101A8000028B80BD920A063D2DE9F04381B02DED19
:101A9000028B41F680660021C2F2000696ED020A32
:101AA00096ED032A96ED041A421820EE027A603170
:101AB00092ED003A37EE411A92ED014A92ED025A48
:101AC00092ED036AB1F5407F31EE031A20EE013A40
:101AD00033EE422A32EE042A20EE023A33EE411A65
:101AE00031EE051A20EE013A33EE422A92ED043A25
:101AF00032EE062A20EE024A34EE411A31EE031A83
:101B000092ED053A20EE014A34EE422A92ED064A61
:101B100032EE032A20EE023A33EE411A92ED073AF2
:101B200031EE041A20EE014A34EE422A92ED084AC0
:101B300032EE032A20EE023A33EE411A92ED093AD0
:101B400031EE041A20EE014A34EE422A92ED0A4A9E
:101B500032EE032A20EE023A33EE411A92ED0B3AAE
:101B600031EE041A20EE014A34EE422A92ED0C4A7C
:101B700032EE032A20EE023A33EE411A92ED0D3A8C
:101B800031EE041A20EE014A34EE422A92ED0E4A5A
:101B900032EE032A20EE023A33EE411A92ED0F3A6A
:101BA00031EE041A20EE014A34EE422A92ED104A38
:101BB00032EE032A20EE023A33EE411A92ED113A48
:101BC00031EE041A20EE014A34EE422A92ED124A16
:101BD00032EE032A20EE023A33EE411A92ED133A26
:101BE00031EE041A20EE014A34EE422A92ED144AF4
:101BF00032EE032A20EE023A33EE411A92ED153A04
:101C000031EE041A20EE014A34EE422A92ED164AD1
:101C100032EE032A20EE023A33EE411A92ED173AE1
:101C200031EE041A20EE014A34EE422A32EE032A43
:101C30007FF43AAF22EE013A21EE014A22EE025A37
:101C400086ED032A86ED041A23EE000A35EE043AE7
:101C500033EE400A10EE100AFEF75AFD41EC100B6D
:101C600022F06AF851EC100BFEF765FD41F22004FA
:101C700000EE100A0021C2F2000494ED002A94ED57
:101C8000011AC6E90311B4EEC02AF1EE10FA09DA1E
:101C90009FEDA13A30EE414A84EE033A31EE031A49
:101CA00084ED011A9FED9D3A30EE424A84EE033AEC
:101CB00032EE032A9FED9A3AB4EEC02AF1EE10FA02
:101CC000C8BFB0EE402A31EE421A84ED002A21EE60
:101CD000031A32EE011AB4EEC01AF1EE10FAB8BFD0
:101CE000012131707078814202D003F0F1FF706100
:101CF00003F0EEFF7169401A07287CD33178B07881
:101D000081421CBFB1700846F178884200F09B8088
:101D1000002875D003F0DCFFB06103F0D9FFF16952
:101D2000401A3062B07800286AD00120F1788842E9
:101D300000F08E8000210028317100F0A580F0882D
:101D4000B7EE002A9FED770AB7EE084AB1EE045AC3
:101D5000F088F18896ED081A96ED0A3A1E2888BF99
:101D6000B0EE402A232988BFB0EE442AB8EEC30A59
:101D700022EE058AB8EEC11A32EE022A22EE002ABD
:101D8000B4EEC12AF1EE10FA13DA28EE002AB4EE0E
:101D9000C12AF1EE10FA0CDDFFF734F896ED081ABF
:101DA00096ED0A0A0020B8EEC00AB8EEC11A86F80D
:101DB0002C0028EE000AB4EEC10AF1EE10FA47DC5E
:101DC000FFF720F80020083486F82C002046FEF7A4
:101DD00080FA0F2803D32046012120F057F920462E
:101DE000FEF777FA2021215241F662700121C2F2FA
:101DF0000000C1712CE0B078F178884288D122E0EF
:101E000003F066FFF06103F063FFB36AB169401A43
:101E10005A00002B706202D09042194608DA45F24F
:101E200056571118C5F2555751FB07F101EBD17107
:101E300001EB81071BB1904201DBB84203DDB842E0
:101E4000C8BF0144B162B078F17888427FF472AFC4
:101E500003F03EFFF169726A401A02EB4201B0EBF7
:101E6000410F08D9307930B9FEF7CCFF012030712D
:101E7000002086F82C003078B1787070F170BDECDD
:101E8000028B01B0BDE8F083D6E909454FEA450968
:101E9000B4EB450F1BDA2846FEF703FC9FED1C0B45
:101EA00053EC102BFEF7E6FA804620460F46FEF76D
:101EB000F8FB02460B4640463946FEF7D7FB30B9E1
:101EC00006F12C073846FEF704FA2E2139524C450C
:101ED000BEDD05EB450040008442B9DA06F12C0571
:101EE0002846FEF7F6F92D21295245F256504FF4B7
:101EF0009661C5F2555054FB00F000EBD07091FB99
:101F0000F0F0F188084400EBD0704008F0809FE7C3
:101F1000333333333333E33F0000C84200007A44A5
:101F2000CDCC4C3F9A99993F4CF63051C2F200010A
:101F30004A7801F10C00002A08BF081D7047000014
:101F4000222809D1887841F64741C2F200010138C0
:101F5000B0FA80F0400908700020704700207047F8
:101F6000B0B541F61E554FF25C640022C2F2000586
:101F7000C2F20004291D204615F04AFC05F10C01AF
:101F8000204615F03FFC0020B0BD000010B54FF218
:101F90005C640146C2F20004204615F033FC204682
:101FA00015F01AFC002010BDF0B54A1E4FF0000ECF
:101FB000BEEB522F18BFF0BD41F61E5C4EF24444FA
:101FC0000025C2F2000CC2F20004BCF80030BCF8DC
:101FD000022000BF465D9FB20133E6559EB2964295
:101FE0000AD0BEEB562F05F1010518BF00238D4224
:101FF000F0D3ACF80030F0BD1346ACF80030F0BDC3
:10200000F0B581B041F61E55C2F200056E882F88EA
:10201000B74202BF012001B0F0BD4FF25C60C2F2D6
:102020000000D0F89042606A002840F08580B742F6
:102030002BD20020B0EB562F4FD14EF24440C2F2CB
:1020400000008119A6F5007010F1080F98BF6FF01D
:102050000700424240F64800C2F20100FEF7E1F8F4
:10206000002031463218B2F5FF7F40D85308FE2BCE
:1020700048D8B2F5FE7F4DD80431042852D0043040
:102080003218B2F5007FEDD34DE02CD94EF244402A
:10209000C2F200008119F01B10F1080F98BF6FF019
:1020A0000700424240F64800C2F20100FEF7B9F8CC
:1020B000032031463218931EBB4220D2531EBB422E
:1020C0003DD2BA423ED2043107283DD00430321806
:1020D000033ABA42EED303382BE0314689B2B1F568
:1020E000007F25D026E00020616A29BB31E0013065
:1020F0000131698089B2B1F5007F19D01AE0023848
:10210000013116E002300231698089B2B1F5007FF9
:102110000ED00FE003300331698089B2B1F5007F42
:1021200006D007E00820698089B2B1F5007F01D1AF
:1021300000216980616A61B1002001B0F0BD013801
:102140000231F6E70331F4E769800820616A00296B
:10215000F2D14FF25C6440F6480182B2C2F2000450
:10216000C2F20101204615F053FB204615F056FB44
:10217000002001B0F0BD00004FF65010C2F2000088
:1021800002F020BF4FF6F030C2F2000002F01ABF9A
:102190004FF6B010C2F2000002F014BF4FF610204C
:1021A000C2F2000002F00EBF4FF65040C2F2000033
:1021B00002F008BF4FF67020C2F2000002F002BF2A
:1021C00080B54FF63030C2F2000002F0FBFEBDE8F1
:1021D000804001F04DBA00007047000070B52DED51
:1021E000028B82B00546002001AA6B460C46CDE961
:1021F000000028461AF040F99DED010AB5EE400AAC
:10220000F1EE10FA06D141F26F209FED6D0AC3F690
:102210008320019041F6EC769FED6A1A41F20C00A2
:10222000C2F20006C2F2000096ED002A81EE001A0A
:10223000B4EEC21AF1EE10FA0FDD90ED003A31EE75
:10224000424AB7EE005A84EE033AB4EEC53AF1EED4
:1022500010FAC8BFB0EE453A05E090ED013A31EE14
:10226000424A84EE033A32EE032A9FED583A4CF686
:1022700030509FED558AB5EEC02AC2F20000F1EE53
:1022800010FAB8BFB0EE482A20EE020AB4EEC30A34
:10229000F1EE10FAC8BFB0EE412A007D86ED002AAB
:1022A00040B114F079FA052804D014F075FA062824
:1022B00040F083804FF07E50B7EE000A306041F26C
:1022C0000C00C2F2000090ED021AB4EE401AF1EEDA
:1022D00010FA0FD0B4EEC01AF1EE10FA13DCB4EE1F
:1022E000C01AF1EE10FA1BDB012C23DA02B0BDECB0
:1022F000028B70BD2846294622461AF043FC02B0E4
:10230000BDEC028B70BD03EE104A30EE412AB8EEF0
:10231000C33A82EE038AB4EEC01AF1EE10FAE3DAA1
:1023200002EE104A30EE410AB8EEC22A80EE028A6E
:10233000012CDBDB0022002105EB820238EE011AC2
:1023400092ED000A21EE000A82ED000A41F001023E
:1023500092B2A2422BDA05EB820238EE011A92ED1C
:10236000000A21EE000A82ED000A41F0020292B258
:10237000A2421CDA05EB820238EE011A92ED000A45
:1023800021EE000A82ED000A41F0030292B2A2425D
:102390000DDA05EB820238EE011A043192ED000AE3
:1023A00021EE000A82ED000A8AB2A242C4DB80ED6F
:1023B000021A02B0BDEC028B70BD96ED000A7EE7FA
:1023C0006F12833A00C0DA450000000000401C464E
:1023D00080B541F200002021C4F2020003F040FC6D
:1023E00041F69C31C2F20001087080BD70B586B024
:1023F000044641F63C70C2F20000007828B141F674
:102400003A70C2F200000078E8B141F63B75C2F2C2
:102410000005287818B1287800283FD1AEE04CF6A6
:102420003050C2F20000017F032912D0022919D0D6
:1024300001292AD190F8216014F0A8F9FEB1642195
:1024400004FB01001FE060B206B0BDE870401AF066
:10245000E3BF43F6095004FB00F614F097F900EBD4
:10246000861010E090F8216014F090F9002E0CBF57
:102470004FF47A7142F2107104FB010003E004EBA7
:10248000840100EB410014F03FFA41F66270012133
:10249000C2F20000C170287800286FD041F63A706F
:1024A000C2F200000078002847D042F60000C4F2D3
:1024B000000002684FF48020059000200490CDE9D0
:1024C000020040208DF80700C2F3021102F00F0055
:1024D00001EB810100EB41008DF80600C2F30321FE
:1024E000C2F3023303EB830301EB43018DF80510C4
:1024F000C2F30343C2F3015242EA820203EB4202F7
:1025000041F639738DF80420C2F200031E788EB3B1
:102510001E78012E3AD1B4F1FF3F00DC71B32144A3
:102520008DF805101B78022B33D1B4F1FF3F00DC8E
:1025300020B320448DF806002BE041F25400C2F293
:10254000000000780238042800F29B80DFE800F0E9
:10255000034A5B6C7D004CF63050C2F20000817F74
:1025600021440A0608BF0121CAB2642A28BF642197
:10257000817780E0B4F1FF3F02DC0AB906B070BD9C
:1025800022448DF804201E78012EC4D01B78022B23
:10259000CBD0D2B2C9B241F64454C0B2182A24BF3B
:1025A00000228DF80420C2F200043C2924BF00213F
:1025B0008DF805103C2824BF00208DF80600204629
:1025C00005F070FF204605F0E1FF01A9204600223A
:1025D00006F0DAF841F662700121C2F20000817162
:1025E00006B070BD4CF63050002CC2F20000C17E27
:1025F00000DCE1B321440A06C17638D0C9B205290E
:1026000037D3042134E04CF63050C2F2000090F889
:10261000281021440A0608BF0121CAB2642A28BF33
:10262000642180F8281026E04CF63050002CC2F2CD
:10263000000090F8291000DCE9B12144CAB20A2A4E
:1026400028BF0A2180F8291015E04CF63050C2F25C
:10265000000090F82A1021440A0608BF0121CAB2DE
:10266000FA2A28BF6FF0050180F82A1003E0012143
:10267000C17609F045F841F662700121C2F200000E
:1026800041704CF22C100121C2F20000017006B022
:1026900070BD0000B0B541F200042021C4F2020474
:1026A000204603F0DDFA41F69C35C2F20005687061
:1026B0002978884224D028702046042103F0D0FADB
:1026C0006A786968904210D1481C68604CF63050B6
:1026D000C2F2000090F8B4008142B8BFB0BD012042
:1026E000FFF784FE00206860B0BD481E68604CF6AD
:1026F0003050C2F2000090F8B4004042814200DD48
:10270000B0BD4FF0FF30FFF771FE00206860B0BD34
:1027100080B54FF4806003F019F941F6A830C2F299
:1027200000000078002818BF80BDBDE8804001F09F
:102730004DB8000080B5042003F008F941F64B4085
:102740000021C2F2000001704CF64560C2F20000A8
:102750000078002814BFBDE8804080BDFFF79ABF15
:1027600080B5102003F0F2F841F64B400021C2F290
:10277000000001704CF64560C2F2000000780028AD
:1027800008BF80BD14F008F8072800D180BDBDE85F
:10279000804014F079B8000080B5202003F0D6F80E
:1027A00041F64B400021C2F20000017041F6B050EA
:1027B000C2F200000078002818BF80BDBDE880404C
:1027C0000CF058B9FEE700002DE9F0412DED0A8B21
:1027D00082B041F6C0689FED519A1E2641F6E2573D
:1027E000B0EE088AB8EE08AAB2EE0BBAB2EE0ECA84
:1027F000C2F2000808F12C05F0B2022E00EE100A19
:10280000B8EE400A0CD800EE107A00210020B8EE95
:10281000C00A80EE080ABDEEC00A10EE102A1DE0C4
:102820000E2E0DD830EE0A0A20EE090A80EE0B0AB1
:10283000BDEEC00A10EE101ACA4308460EE000BFF3
:102840003CEE400AFF20002220EE090A80EE0C0A2E
:1028500030EE090ABDEEC00A10EE101AD2B21FF017
:10286000B3FB25F8020BFF3F013EC5D14CF63055B6
:10287000C2F2000595F86000022849D349F6806746
:1028800041F238044FF400714FF40076C0F60207AD
:10289000C2F2000457F82000E060A068FDF7DAFCFF
:1028A00095F860004FF4007157F82000A06160694E
:1028B000FDF7D0FC4EF2446095F8602045F63814E0
:1028C000C2F20000C0F60204CDE9000602EB4200AD
:1028D00004EB80004188436808F1140019F0F4F813
:1028E0004EF6506095F86020C2F20000CDE9000677
:1028F00002EB420004EB80004188436808F12000AD
:1029000019F0E2F895F86000B6FBF0F0A8F80400C2
:1029100002B0BDEC0A8BBDE8F08100BF00007F4330
:102920002DE9F04F81B02DED088B8AB04CF6305573
:10293000C2F2000595F86700002800F0E78241F236
:102940003804C2F200042078002800F0DF8241F64B
:10295000C066C2F200063078002840F0D78244F208
:10296000F07800204FF400710422C2F20008CDE993
:10297000080040461AF010FA44F6F0794FF400715E
:102980000522C2F2000948461AF006FA95F86200DC
:10299000C8B144F2F07141F6A4104FF40073C2F2D2
:1029A0000001C2F200000A4618F044F844F6F07143
:1029B00041F6B0104FF40073C2F20001C2F2000001
:1029C0000A4618F037F895F86000012840F2F580C3
:1029D000201D414642464FF4007317F067FF04F193
:1029E000100049464A464FF4007317F05FFF06F1A6
:1029F0001400414642464FF4007318F075FE06F18C
:102A0000200049464A464FF4007318F06DFEB08826
:102A10000022072709EB800143F2F0794FEAC00E4C
:102A2000C0F5007BA1F5FF6A08EB8001C2F2000946
:102A3000A1F5006C45F2F071C2F2000101F11C0336
:102A40005A450FDA03EB0E001D461C46A7F1060897
:102A500050F81C1C45F81C1D50F8180C44F8180DB3
:102A6000F81F11E0DCF800005AF8081C43E90701E0
:102A700045F2F070C2F20000014600EBC2055000C2
:102A800000F1010801EB88042968551C5D4549F8EF
:102A90002010206849F8280018DA03EB0E0142F0F4
:102AA000010051F8144C43F8144C51F8101C43F831
:102AB000101C45F2F071C2F200010E4601EBC00499
:102AC0004100481C06EB80060CE000BFDCF8040067
:102AD0001C461E46791F44F8140D5AF8040C46F89B
:102AE000100D381F246801355D4549F821403168D3
:102AF00049F8201018DA03EB0E0142F0020051F8F9
:102B00000C4C43F80C4C51F8081C43F8081C45F2D7
:102B1000F071C2F20001884601EBC00441004E1C76
:102B200008EB86000CE000BFDCF808001C46DAF871
:102B30000010BE1E44F80C0D184640F8081DF91E82
:102B40002468013500685D4549F8214049F82600B0
:102B500016DA03EB0E0142F0030051F8041C43F8AF
:102B6000041C53F80E10196045F2F071C2F2000116
:102B700001EBC00240000C46411C04EB81040AE05A
:102B8000DCF80C001A461C46394642F8040DDAF807
:102B900004001860781E12680AF1100A0CF1100C7B
:102BA0000837203349F8202020686A1CB2F5007FDE
:102BB00049F821007FF444AF4FE043F2F070002267
:102BC000C2F2000000F13C0159F8020058F802304E
:102BD00008EB020609EB020C039043F2F07041F897
:102BE0003C3C4B46C2F2000000EB4207D6E901A094
:102BF0002032B2F5006F0190F068029030690490C5
:102C000070690590B0690690F06907904046DCF85D
:102C10000480DCE9029E0CF1100C9CE87010DDF8D9
:102C20000CB0C7E901BAC7F80C8080460198C7E923
:102C3000040999460298C7E9060E0498C7E90804F2
:102C40000598C7E90A050698C7E90C060798B8630E
:102C5000C1F800C001F14001B6D143F2F07441F671
:102C6000C0679FEDC18A9FEDC19A9FEDC1AA9FEDFC
:102C7000C1BA01200026C2F20004C2F20007251DDD
:102C8000387000BFB0B200EE100AB8EE400A20EE75
:102C9000080A80EE090A18F0B9FC20EE0A0A15EDC0
:102CA000011A95ED002A013630EE0B0AB6F5007FC9
:102CB00021EE001A20EE020A05ED011A85ED000A48
:102CC00005F10805DED149F24460214600220123C6
:102CD0000025C0F6020018F083F8204621464FF484
:102CE000007218F0CFFBB6EE000A0020211862191E
:102CF0004030203591ED001A91ED012AB0F5006FBA
:102D000031EE021A21EE001A82ED001A91ED021A3C
:102D100091ED032A31EE021A21EE001A82ED011A1A
:102D200091ED041A91ED052A31EE021A21EE001AF6
:102D300082ED021A91ED061A91ED072A31EE021A80
:102D400021EE001A82ED031A91ED081A91ED092A7D
:102D500031EE021A21EE001A82ED041A91ED0A1AE0
:102D600091ED0B2A31EE021A21EE001A82ED051ABE
:102D700091ED0C1A91ED0D2A31EE021A21EE001A96
:102D800082ED061A91ED0E1A91ED0F2A31EE021A1C
:102D900021EE001A82ED071AA8D1606808AA09ABD3
:102DA0004FF480712060204619F066FB97ED030A0E
:102DB0009DED081AF888B2EE042A31EE401A062872
:102DC00081EE021A04D3B5EEC01AF1EE10FA16DC49
:102DD000B5EEC01A00210022BAEE043AF1EE10FA64
:102DE000B8BF0122B4EEC31A022838BF0121114036
:102DF000F1EE10FA80F29080002900F08D8041F20F
:102E00003805B0EE413AC2F2000530EE030A87ED14
:102E1000030A9FED591A0020F880B4EEC10AF1EEC2
:102E200010FABEBF0020C4F2C820F86013F0B4FC52
:102E30000B2807D146F200009FED500AC4F26A70D9
:102E4000F86001E097ED030AB7EE001A204621462C
:102E50004FF4807281EE000A19F094FE4CF6305067
:102E6000C2F2000090F8BA10002000EE101A46F2EC
:102E7000F071B8EE400AC2F2000100BF0A18231830
:102E8000103093ED002A92ED001AB4EEC21A32EE21
:102E9000412A82EE002AF1EE10FA31EE021A93ED89
:102EA000012A82ED001A92ED011AB4EEC21A32EE36
:102EB000412A82EE002AF1EE10FA31EE021A93ED69
:102EC000022A82ED011A92ED021AB4EEC21A32EE13
:102ED000412A82EE002AF1EE10FA31EE021A93ED49
:102EE000032A82ED021A92ED031AB4EEC21A32EEF0
:102EF000412AF1EE10FA82EE002A31EE021AB0F504
:102F0000806F82ED031AB9D1002028700AB0BDECA1
:102F1000088B01B0BDE8F08F41F23805B4EEC20A6B
:102F2000F1EE10FAC2F2000502DD0228FFF46DAFE7
:102F3000BFEE002A0022B0EE413AB4EEC21AF1EE22
:102F400010FAB8BF01220A427FF45FAFB7EE001A51
:102F5000B4EEC10AF1EE10FA7FF75BAF0128B0EED4
:102F6000423A7FF652AF54E7DB0FC9400080FF437F
:102F70001F85EBBE713D0A3F0000C84200606A47F2
:102F80002DE9F04F83B04DF6C75146F2F07B40F685
:102F90004C694FF0000CCAF63A71C2F2000BC2F253
:102FA000010951FB000009F10E05C846C10901EBFA
:102FB000D0704CF63051C2F2000191F860104843D5
:102FC0000FFA80FA0BF10C00019009F10600009055
:102FD000BAF1010F029512DA78E000BF029D0CF100
:102FE000010C08F50078BCF1320F05F5007504BF3F
:102FF00003B0BDE8F08FBAF1010F029566DB002443
:10300000BCF1000F00F0D6800AEB040608EB440781
:103010000834B0B2FF288FBF002009EB4C2031B23A
:1030200030F8110025F80E0C701C81B2FF298FBFFB
:10303000002009EB4C2100B231F810007880B01C60
:1030400081B2FF298FBF002009EB4C2100B231F87B
:103050001000B880F01C81B2FF298FBF002009EB5F
:103060004C2100B231F81000F880301D81B2FF29E8
:103070008FBF002009EB4C2100B231F810003881DD
:10308000701D81B2FF298FBF002009EB4C2100B2D7
:1030900031F810007881B01D81B2FF298FBF002068
:1030A00009EB4C2100B231F81000B881F01D81B25B
:1030B000FF298FBF002009EB4C2100B231F810002E
:1030C00025F8100BB4F5807F9ED187E7BAF1FF3F5A
:1030D0003FF784AFBCF1000F00F0C580002400BFB3
:1030E0000AEB040508EB4406083C05F1FF0000B2BA
:1030F0000028A6BF09EB4C2131F810000020A6F8EB
:10310000FE0105F1FE0000B20028A6BF09EB4C212C
:1031100031F810000020A6F8FC0105F1FD0000B216
:103120000028A6BF09EB4C2131F810000020A6F8BA
:10313000FA0105F1FC0000B20028A6BF09EB4C2102
:1031400031F810000020A6F8F80105F1FB0000B2EC
:103150000028A6BF09EB4C2131F810000020A6F88A
:10316000F60105F1FA0000B20028A6BF09EB4C21D8
:1031700031F810000020A6F8F40105F1F90000B2C2
:103180000028A6BF09EB4C2131F810000020A6F85A
:10319000F20105F1F80000B20028A6BF09EB4C21AE
:1031A00031F810000020A6F8F00114F5807F97D1C7
:1031B00014E700BFDDE900560AEB040738B23946D0
:1031C000FF28C8BFA1F5807109B25BF8211046F84D
:1031D0000C1CB9B2FF2994BF39F81000002025F863
:1031E000060C781C02B281B2FF2AC8BFA7F1FF000B
:1031F00000B2FF295BF820300BEB8400436094BFE2
:1032000039F81210002109EB440204345180B91C32
:103210000FFA81FE8BB2BEF1FF0FC8BFA7F1FE010E
:1032200009B2FF2B5BF82110816007F1030194BF05
:1032300039F81E00002090808AB208B2FF28C8BF6B
:10324000A7F1FD0109B2FF2A5BF82110316006F1F8
:10325000100694BF39F81000002025F8080BB4F5CB
:10326000807FA9D1BAE600260AEB06070BEB86049D
:1032700009EB4605083E07F1FF0108B20028B8BF78
:1032800007F2FF1109B200285BF82110C4F8FC1303
:1032900007F1FE01ACBF39F810000020A5F8FE01CF
:1032A00008B20028B8BF07F5FF7109B200285BF823
:1032B0002110C4F8F81307F1FD01ACBF39F8100074
:1032C0000020A5F8FC0108B20028B8BF07F2FD11E4
:1032D00009B200285BF82110C4F8F41307F1FC01CF
:1032E000ACBF39F810000020A5F8FA0108B2002898
:1032F000B8BF07F5FE7109B200285BF82110C4F8C9
:10330000F01307F1FB01ACBF39F810000020A5F85D
:10331000F80108B20028B8BF07F2FB1109B2002873
:103320005BF82110C4F8EC1307F1FA01ACBF39F8CF
:1033300010000020A5F8F60108B20028B8BF07F574
:10334000FD7109B200285BF82110C4F8E81307F1F9
:10335000F901ACBF39F810000020A5F8F40108B25B
:103360000028B8BF07F2F91109B200285BF8211054
:10337000C4F8E41307F1F801ACBF39F810000020DD
:10338000A5F8F20108B20028B8BF07F5FC7109B230
:1033900000285BF82110C4F8E013ACBF39F8100026
:1033A000002016F5807FA5F8F0017FF45DAF15E6EB
:1033B0002DE9F0472DED0C8BC0B041F638704CF67E
:1033C0003058C2F20000C2F20008017898F8672075
:1033D000002A00F0458141F23802C2F20002127860
:1033E0001143C9B2002940F03B8141F63B71C2F262
:1033F00000010978002940F0338141F63D71C2F2A5
:1034000000010978002940F02B8141F63E71C2F29B
:1034100000010978002940F0238101210170FEF7A5
:1034200083FD41F6C06A0068C2F2000ADAF81010A3
:1034300088420DD0FEF778FDDAF810100068401AC7
:1034400000B2FFF79DFDFEF76FFD0068CAF810009F
:1034500040F64C694FF690340025C2F20109C2F2E1
:10346000000400BF09EB0500802300F5C04100F512
:10347000C442204602F0C0F9204600214FF0FF323E
:1034800002F0AEF8A5F5007515F5C44FEAD16C460B
:103490004FF480712046FCF7DDFE46F2F0779FED99
:1034A00073AA0026B3EE0E8AB0EE089AB8EE08BAF8
:1034B000B2EE0BCAB2EE0EDAC2F2000797ED000AC6
:1034C00020EE080ABDEEC00A10EE100A1E2809D32D
:1034D000BAF806001E250130AAF806004FF478401D
:1034E00036E000BFC5B200EE105A022DB8EE400A19
:1034F0000ED8C5EB0520002100EE100A0020B8EE22
:10350000400A80EE090ABDEEC00A10EE102A1CE047
:103510000E2D0CD830EE0B0A20EE0A0A80EE0C0AB3
:10352000BDEEC00A10EE101ACA4308460DE03DEE8B
:10353000400AFF20002220EE0A0A80EE0D0A30EE3B
:103540000A0ABDEEC00A10EE101AD2B21EF03CFDFF
:1035500086F0800101360437B6F5807F655429F87E
:103560001100ABD10020A021FF22BE23002508F0CE
:1035700015FC00BF002600BF802E09D14FF4FC606F
:1035800008F004FC0136B6F5807FF5D10FE000BFEE
:10359000A05DC0F11E00854286BF0AEB4500808D0C
:1035A000002008F0F3FB0136B6F5807FE4D1013549
:1035B0001E2DDFD18020BE216FF01D024FF4FC6371
:1035C00008F046FF00209E214FF480720023002463
:1035D00008F022FFFEF7A8FCC68898F86050FEF7B6
:1035E000A3FC01790A2935D84DF6C750CAF63A70BE
:1035F000A6FB0002D00901228A40684312F0290F7D
:1036000008D112F0520F0ED081B28022802928BF3B
:10361000104605E081B28022802928BF1046404232
:1036200002B2802011E0012202FA01F111F4A06F30
:1036300010D081B2B1F5807F28BF4FF4807002B204
:10364000802180B2A1EB500000B29E214FF4FC63B8
:1036500008F0E2FEAAF808408AF8024000F008F8F4
:1036600040B0BDEC0C8BBDE8F08700BF00007F438D
:1036700010B54CF63050C2F2000090F8660048B128
:1036800013F08AF8032803D013F086F8042801D138
:10369000212200E0322241F6C064C2F200042189F6
:1036A0008A4225D9A27801F1BF00BE3189B283B226
:1036B0008AB38120FF2208F071FB40F64C6120891B
:1036C0007F23C2F2010101EB402000F5817141F638
:1036D0002860C2F2000002684FF63030C2F20000EB
:1036E00002F0C8F80020A07020890130208110BDB0
:1036F0008020BE214FF4FC6308F0AAFE41F638702A
:103700000021C2F20000017041F238000121C2F232
:103710000000017010BD0020802208F03FFB40F641
:103720004C6120898023C2F2010101EB402141F666
:103730002860C2F2000002684FF63030C2F200008A
:1037400002F098F80120A07010BD00002DE9F041B2
:1037500082B041F6A838C2F2000898F8010010B112
:1037600002B0BDE8F081012088F8010048F2C040B5
:10377000C0F6020090E8F000294632463B4620465B
:103780001AF0DAF87220294632463B46009020466D
:103790001AF0F4F82120294632463B460090204694
:1037A0001BF004FAFF20294632463B460090204693
:1037B0001BF0FCF92046294632463B461AF0E8F851
:1037C000002088F8010002B0BDE8F08110B541F694
:1037D000A8340120C2F20004207040F20010C2F2AE
:1037E000010005F04BFA052805D140F20010C2F2A5
:1037F000010005F055F940F20010C2F2010005F099
:103800003DFA01280AD140F2001004F12A0104F126
:1038100010020823C2F2010005F0FEFD0020207016
:1038200010BD000070B541F6A830012141F6C06C12
:103830004CF6436EC2F20000C2F2000CC2F2000E5F
:10384000017000210170D0E9041242628268C38CC9
:10385000DBBA013200EE103A8260B8EEC00A0162B3
:103860009CF800209EF8001091B162B146F6F0314C
:1038700044F2F073C2F20001C2F20003096803EBE4
:10388000810181ED000A47F2F413C2F2000311E056
:1038900062B146F6F03144F6F073C2F20001C2F2B2
:1038A0000003096803EB810181ED000A47F2F4731C
:1038B000C2F20003C18803EB810383ED000A838C0D
:1038C000DBBA00EE103A9EF80030B8EEC00A93B1B1
:1038D00062B146F6F03344F6F074C2F20003C2F26D
:1038E00000041B6804EB830383ED000A47F2F473C2
:1038F000C2F2000311E062B146F6F03344F2F07414
:10390000C2F20003C2F200041B6804EB830383EDE0
:10391000000A47F2F413C2F2000303EB810347F6F7
:10392000F45548F2F43483ED000AC2F20005C2F205
:1039300000049EF80030002B2B4608BF2346468C1F
:1039400003EB8103F6BA00EE106AB8EEC00A83ED0D
:10395000000A9EF80030002B08BF2C46038CDBBA0F
:1039600000EE103A04EB8103B8EEC00A83ED000AC2
:103970004B1C99B2B1F5C07118BF1946002AC1801D
:103980000ED046F6F032C2F2000213680133136023
:103990001368B3F5007F02BF00238CF8003013607A
:1039A00048F6F4738AB20131C2F20003BF2A03EB76
:1039B000820393ED000ABDEEC00A10EE103A80F8C3
:1039C0002B304FEA132380F82A3048F6F413C2F262
:1039D000000303EB820393ED000ABDEEC00AC18031
:1039E00010EE101A80F82D104FEA112180F82C10DB
:1039F00010D040F27F118A4218BF70BD41F62E618F
:103A0000C2F200010A7882B140F27F11C180012127
:103A1000017170BD41F62E61C2F200010A7872B1E7
:103A2000BF21C1800121017170BD41F28C120123BF
:103A3000C2F2000213700022C2800B7070BD012020
:103A4000087041F28C100021C2F20000017070BDBC
:103A50002DE9F04F81B0FEF767FA006819F010FF0A
:103A6000804612F0F9FEE8B912F096FE04280CD058
:103A7000032817D1FEF758FA4CF630510068C2F20D
:103A80000001B1F86810084409E0FEF74DFA4CF661
:103A900030510068C2F20001B1F86810401A19F004
:103AA000EFFE804612F0D8FE18B112F075FE0B281A
:103AB00002D14FF0000A01E04FF0010A12F0CCFEF3
:103AC00081464CF63050C2F2000090F815B048F232
:103AD000C040C0F6020090E8E000C46831463A46B3
:103AE0002846234619F028FF722031463A462346DD
:103AF0000090284619F042FF1F2031463A462346DF
:103B0000009028461BF052F85046BBF1000F31469A
:103B10003A46234618BF0230B9F1000F18BF50468D
:103B2000009028461BF042F8284631463A46234684
:103B300019F02EFF284631463A46234619F0FCFE7E
:103B4000722031463A4623460090284619F016FF67
:103B5000202031463A462346009028461BF026F89E
:103B6000C8F3074031463A462346009028461BF0EA
:103B70001DF8C8F3072031463A46234600902846F0
:103B80001BF014F85FFA88F031463A46234600905D
:103B900028461BF00BF8284631463A46234601B02A
:103BA000BDE8F04F19F0F4BE10B541F6A834C2F2EA
:103BB00000046078002818BF10BD01206070A07854
:103BC00018B1FFF745FFA01C03E0204610F8031FC3
:103BD00009B1002101700020607010BD2DE9F04195
:103BE00082B041F6A838C2F2000898F8010010B17E
:103BF00002B0BDE8F081012088F8010048F2C04021
:103C0000C0F6020090E8F000294632463B462046C6
:103C100019F092FE7220294632463B46009020461B
:103C200019F0ACFE2120294632463B460090204642
:103C30001AF0BCFFFF20294632463B460090204642
:103C40001AF0B4FF2046294632463B4619F0A0FE42
:103C5000002088F8010002B0BDE8F0812DE9F043B2
:103C600081B041F6A838C2F2000898F8010010B1FE
:103C700001B0BDE8F083012088F8010048F2C0409F
:103C8000C0F6020090E8F000294632463B46204646
:103C900019F052FE7220294632463B4600902046DB
:103CA00019F06CFE2120294632463B460090204602
:103CB0001AF07CFF4FF000092046294632463B4669
:103CC000CDF800901AF072FF2046294632463B4656
:103CD00019F05EFE88F8019001B0BDE8F0830000A5
:103CE000F0B581B0054643F480401F4614460E46A9
:103CF000B0F5804F07D04AF68F5040F24F11C0F612
:103D0000020019F00DF8B7F5804F28D140F20410E9
:103D1000CAF20000854207D04AF68F5040F2551192
:103D2000C0F6020018F0FCFF306810281ED2706840
:103D300001380F2826D2B0680138FF282ED2F0684B
:103D4000102836D2B0694FEA307004283ED2062CD3
:103D500046D80120A04010F0550F49D140E06FF047
:103D6000704045F82400002001B0F0BD4AF68F50A5
:103D70004FF4AB71C0F6020018F0D2FF7068013842
:103D80000F28D8D34AF68F5040F25711C0F60200E0
:103D900018F0C6FFB0680138FF28D0D34AF68F501C
:103DA0004FF4AC71C0F6020018F0BAFFF0681028AA
:103DB000C8D34AF68F5040F25911C0F6020018F0ED
:103DC000AFFFB0694FEA30700428C0D34AF68F5075
:103DD0004FF4AD71C0F6020018F0A2FF062CB8D95E
:103DE0004AF68F5040F25B11C0F6020018F098FFBF
:103DF000002155F82400CCF6F071084096E88E00BA
:103E00000843B16940EA021040EA032040EA074053
:103E1000084345F82400002001B0F0BD2DE9F0472B
:103E20000D468046B0F1204F06D04AF68F508621CD
:103E3000C0F6020018F074FF286806280ED8012189
:103E400001FA00F010F0550F08D0686840F0020049
:103E500002280FD1A868082817D9A8E04AF68F5081
:103E60008721C0F6020018F05BFF686840F002008E
:103E70000228EFD04AF68F508821C0F6020018F0D1
:103E80004FFFA868082800F29280012101FA00F093
:103E900040F21111084200F08A80E868002818BF3B
:103EA000102840F09180286940F48070B0F5807F40
:103EB00040F09B80686940F40070B0F5007F40F0EE
:103EC000A280A86940F48060B0F5806F40F0A980BE
:103ED000E86940F40060B0F5006F40F0B080286AF7
:103EE00040F48050B0F5805F40F0B780686A40F4DD
:103EF0000050B0F5005F40F0BE80A86A40F48040FA
:103F0000B0F5804F40F0C580E86A40F40040B0F55D
:103F1000004F40F0CC80286B40F40020B0F5002F1B
:103F200040F0D380D5F83CE04FEA3E41052908D364
:103F30004AF68F509621C0F6020018F0F1FED5F82F
:103F40003CE0D5E900C205F1080A80219AE8D804CE
:103F5000D5F81C90CFF6F07158F82C00082B00EA29
:103F6000010040EA020040EA030040EA040040EA9F
:103F7000060005F1200640EA070056CE2D6B40EA08
:103F80000A0040EA090040EA010040EA020040EA73
:103F9000040040EA060040EA0E0040EA050008BFBF
:103FA00040F0400048F82C000020BDE8F0874AF6B9
:103FB0008F508921C0F6020018F0B2FEE868002890
:103FC00018BF10283FF46FAF20283FF46CAF4AF6BB
:103FD0008F508A21C0F6020018F0A2FE286940F432
:103FE0008070B0F5807F3FF465AF4AF68F508B212B
:103FF000C0F6020018F094FE686940F40070B0F555
:10400000007F3FF45EAF4AF68F508C21C0F602006D
:1040100018F086FEA86940F48060B0F5806F3FF428
:1040200057AF4AF68F508E21C0F6020018F078FE86
:10403000E86940F40060B0F5006F3FF450AF4AF615
:104040008F509021C0F6020018F06AFE286A40F4F2
:104050008050B0F5805F3FF449AF4AF68F50912110
:10406000C0F6020018F05CFE686A40F40050B0F53B
:10407000005F3FF442AF4AF68F509221C0F6020033
:1040800018F04EFEA86A40F48040B0F5804F3FF42F
:104090003BAF4AF68F509321C0F6020018F040FE65
:1040A000E86A40F40040B0F5004F3FF434AF4AF600
:1040B0008F509421C0F6020018F032FE286B40F4B5
:1040C0000020B0F5002F3FF42DAF4AF68F50952118
:1040D000C0F6020018F024FED5F83CE04FEA3E415D
:1040E0000529FFF42EAF23E7F0B581B015460C4645
:1040F0000646B0F1204F07D04AF68F504FF48C712E
:10410000C0F6020018F00CFE206810281FD260686C
:1041100001380F2827D2A0680138FF282FD2E06885
:10412000102837D2206902380F283FD26069023840
:10413000102847D2A0694FEA307004284FD2062DCC
:1041400057D80120A84010F0550F5AD151E04AF637
:104150008F5040F21911C0F6020018F0E1FD6068BE
:1041600001380F28D7D34AF68F504FF48D71C0F61F
:10417000020018F0D5FDA0680138FF28CFD34AF619
:104180008F5040F21B11C0F6020018F0C9FDE06824
:104190001028C7D34AF68F504FF48E71C0F6020034
:1041A00018F0BEFD206902380F28BFD34AF68F50A1
:1041B00040F21D11C0F6020018F0B2FD606902382D
:1041C0001028B7D34AF68F504FF48F71C0F6020013
:1041D00018F0A6FDA0694FEA30700428AFD34AF664
:1041E0008F5040F21F11C0F6020018F099FD062D05
:1041F000A7D94AF68F504FF49071C0F6020018F01C
:104200008FFD06EB85000027D0F804C094E84C0031
:10421000D4E90351CFF6F077D4E905E407EB015177
:104220000CF040473A4342EA031242EA062242EACD
:10423000054211430EF1FE02214341EA0261416051
:10424000002001B0F0BD00002DE9F04F81B02DED50
:10425000048B8AB040F258140293CDE903019020F8
:10426000914600264FF480550DF127010DF12602ED
:104270000123C2F201048DF827008DF82660009515
:10428000204604F001FF0DF127010DF12602204622
:1042900001238DF827608DF82660009504F0F4FE68
:1042A0009DF826800DF127010DF1260220460123FD
:1042B0008DF827608DF82660009504F0E5FE9DF8E6
:1042C00026A0642018F0D2FDD0200DF127010DF1B9
:1042D000260201238DF8266000958DF827002046E0
:1042E00004F0D2FE0DF127010DF126022046012334
:1042F0008DF827608DF82660009504F0C5FE9DF8C6
:1043000026700DF127010DF12602204601238DF8BC
:1043100027608DF82660009504F0B6FE4AEA082072
:10432000B9F1000FCDF8149080B24FEAD00006909A
:104330009DF8260040EA072080B24FEAD00007909F
:10434000484600F0818040F258154FF000094FF0C8
:10435000000B4FF48054C2F2010500BF90200DF114
:1043600027060DF1260A01238DF826B000948DF85A
:10437000270028463146524604F086FE284631463C
:10438000524601238DF827B08DF826B0009404F032
:104390007BFE9DF826003146524601238DF827B05A
:1043A0008DF826B000940890284604F06DFE9DF824
:1043B0002670642018F05AFDD02031465246012361
:1043C0008DF826B000948DF82700284604F05CFE96
:1043D00028463146524601238DF827B08DF826B085
:1043E000009404F051FE9DF826802846314652463E
:1043F00001238DF827B08DF826B0009404F044FE18
:10440000089847EA0020BBEBD00F1EBF9DF826108E
:1044100041EA08215FEAD10106D1059809F10109B5
:1044200081459BD310E000BF079AC00811FA82F1C2
:1044300049080791069910FA81F0400806900598FE
:1044400009F10109814589D3DDF8189041F6B0548E
:10445000C2F200041FFA89F094ED010AD4ED020AB9
:1044600001EE100AB8EE418AB0EE481A18F05AFC74
:10447000DDF81C80F8B11FFA88F094ED030AD4ED42
:10448000040A01EE100AB8EE419AB0EE491A18F08B
:1044900049FC80B104F1200C04F1100204F11C036A
:1044A00004F10C0704F1180604F1140504F10801E5
:1044B0000434012090E094ED020AD4ED090AB0EE34
:1044C000481A18F02FFCF8B11FFA88F094ED0A0A88
:1044D000D4ED0B0A01EE100AB8EE419AB0EE491A7B
:1044E00018F020FC80B104F12C0C04F1200204F13E
:1044F000280304F11C0704F1300604F1180504F147
:1045000024010834022067E094ED0D0AD4ED0E0A70
:10451000B0EE481A18F006FCF8B11FFA88F094EDD6
:10452000040AD4ED0F0A01EE100AB8EE419AB0EE7B
:10453000491A18F0F7FB80B104F1400C04F13C0279
:1045400004F1200304F1100704F1380604F13405E6
:1045500004F11801143403203EE094ED0E0AD4ED6A
:10456000110AB0EE481A18F0DDFBF8B11FFA88F016
:1045700094ED0B0AD4ED120A01EE100AB8EE419A3E
:10458000B0EE491A18F0CEFBB0B104F1480C04F1BA
:10459000400204F12C0304F1200704F1440604F165
:1045A000380504F130011834042015E01FFA88F0B2
:1045B00000EE100AB8EE409A04F1200C04F13C021F
:1045C00004F1280304F10C0704F1440604F1340556
:1045D00004F124010434002095ED000A96ED001A40
:1045E00094ED002A91ED003A92ED004A97ED005AC1
:1045F0009CED006A93ED007AF7EE000A31EE401A66
:1046000030EE480A33EE423A38EE422A35EE445A4A
:1046100034EE494A37EE467A39EE466A80EE010AB0
:1046200082EE032ABFEE001A84EE053A86EE074AB0
:104630009FED6C5A30EE200A32EE011A33EE202A3A
:1046400030EEC43AB5EEC00A30EEC06A31EE207AE0
:10465000F1EE10FAB5EEC02AB8BFB0EE450AF1EEA1
:1046600010FAB5EEC03AB8BFB0EE452AF1EE10FA36
:10467000B5EEC06AB8BFB0EE453AF1EE10FAB5EE4D
:10468000C04AB8BFB0EE456AF1EE10FAB5EEC07A96
:10469000B8BFB0EE454AF1EE10FAB4EEE00AB8BF8A
:1046A000B0EE457AF1EE10FAB4EEE02AC8BFB0EEF3
:1046B000600AF1EE10FAB4EEE03AC8BFB0EE602A3C
:1046C00022EE001AF1EE10FAB4EEE06AC8BFB0EEC6
:1046D000603AF1EE10FAB4EEE04AC8BFB0EE606A9C
:1046E00023EE060AF1EE10FAB4EEE07AC8BFB0EE9F
:1046F000604AF1EE10FAC8BFB0EE607A24EE072AE5
:1047000003280ED002281FD0012839D19FED363A58
:104710009FED364A31EE001A30EE022A21EE030AEE
:104720004EE09FED313A31EE001A9FED304A30EE07
:10473000020A21EE032A20EE041A32EE030A04993B
:10474000DDE9020290B142E09FED283A30EE022A04
:104750009FED254A31EE000A22EE031A20EE040AEC
:1047600031EE031A0499DDE9020280BBBDEEC11AE5
:10477000BDEEC00A11EE100A10EE108A108028E07B
:1047800030EE022A042813D19FED173A9FED174A05
:1047900031EE000A20EE030A22EE041A30EE030A7C
:1047A00031EE041A0499DDE902020028DED00EE0A1
:1047B0009FED0F3A31EE000A9FED0E4A20EE030AFC
:1047C00022EE041A0499DDE902020028CED0A2F8F4
:1047D0000090A1F800800AB0BDEC048B01B0BDE8E8
:1047E000F08F00BF000000000000F04200002043F6
:1047F000000070430000A043F0B581B007460020E0
:104800000D4600900868132826D2686801381028E1
:104810002ED2A868082807D34AF6575040F25C61A8
:10482000C0F6020018F07CFA97F83C00012802BF9D
:10483000022001B0F0BD012087F83C0028681FFA73
:1048400080FC0A284FEA4C0111FA80F31CD33A6825
:104850001E3B02F10C011AE04AF6575040F25A6131
:10486000C0F6020018F05CFA686801381028D0D34E
:104870004AF6575040F25B61C0F6020018F050FA59
:10488000A8680828C8D2CFE73A6802F110010724C7
:104890000E689C40A6430E60AE6806FA03F30E68ED
:1048A00033430B606968062905D801EB810102F1E9
:1048B000340305390BE001EB81050C2987BF02F1B8
:1048C0002C03A5F1410102F13003A5F123011F26BC
:1048D0001D688E400CFA01F125EA06061E601E686E
:1048E0003143196042F20431C4F20101A1F5417370
:1048F0009A423CD1122808D1086840F48000086030
:10490000002087F83C0001B0F0BD20F00102102A21
:104910002DD10A68102842F400020A6027D141F61E
:10492000BC104DF68361C2F20000C4F21B31006876
:10493000A0FB0101880C00EB800040000090009873
:1049400028B914E0009801380090009878B10098D8
:1049500001380090009850B10098013800900098FC
:1049600028B100980138009000980028EAD1002072
:1049700087F83C0001B0F0BD0068C06C70470000D3
:10498000002804BF01207047B0B542F20001044680
:104990000068C4F20101884213D042F20011C4F24F
:1049A000010188420DD042F20021C4F20101884287
:1049B00007D04AF6575040F24311C0F6020018F0F3
:1049C000AFF960684FEA304004281CD2A0684FEA73
:1049D0003060042824D2206902282CD2207E0228AC
:1049E00034D2A06AB0F1106F3CDAB0F1806F46DBD0
:1049F000B0F1C06F56DB66D0B0F1E06F63D0B0F1BC
:104A0000006F60D042E14AF657504FF4A271C0F6F1
:104A1000020018F085F9A0684FEA30600428DAD364
:104A20004AF6575040F24511C0F6020018F078F9E6
:104A300020690228D2D34AF657504FF4A371C0F62A
:104A4000020018F06DF9207E0228CAD34AF65750AA
:104A500040F24711C0F6020018F062F9A06AB0F106
:104A6000106FC2DBB0F1506F11DAB0F1306F20DAA5
:104A7000B0F1106F27D0B0F1206F24D006E1B0F173
:104A8000007F1BDAF8B1B0F1807F1CD0FEE000F1AE
:104A90007141022917D3B0F1506F14D0B0F1606F9B
:104AA00011D0F3E0B0F1806F0DD0B0F1A06F0AD05B
:104AB000ECE008D0B0F1406F05D0E7E003D0B0F1F2
:104AC000407F40F0E380E06840F40060B0F5006FA4
:104AD00040F0EB80E0690138102880F0F38094F812
:104AE0003000022880F0FB806069032880F0038199
:104AF00094F82000022807D34AF6575040F24D118F
:104B0000C0F6020018F00CF90125A06AC0F6007585
:104B1000A8420CD0E06A4FEA3070042807D34AF666
:104B2000575040F25111C0F6020018F0F9F8206C0D
:104B3000C8B3206CC00640D4206C41F202118843F7
:104B40000230206442F20430C4F20100016821F412
:104B5000403101606168026811430160206841686A
:104B600021F4807141602169426842EA012141607B
:104B7000416821F040714160A16842681143416081
:104B8000816821F400618160E1688268114381607D
:104B9000A16A826822F07062A9428260826811D1A3
:104BA00022F0405117E0204600F0B4F8002084F8CD
:104BB0003C006064206CC006BED50120002184F852
:104BC0003C10B0BD11438160816821F0405181608B
:104BD000E16A826811438160816821F0020181608D
:104BE000217E826842EA4101816094F82010F1B18F
:104BF000616A4A1E082A09D34AF6575040F2777173
:104C0000C0F6020018F08CF82068616A426842F42D
:104C100000624260426822F4604242604EF200024A
:104C2000CFF6FF7202EB41314268114302E0416866
:104C300021F4006141600022C16ACFF6F07221F4D4
:104C40007001C162E16902EB0151C26A1143C162A4
:104C5000816821F40071816094F83010826842EA22
:104C600041218160816821F480618160616982688D
:104C700042EA81210122816000206064216C62F39C
:104C800001012164002184F83C10B0BD4AF6575060
:104C90004FF4A471C0F6020018F042F8E06840F446
:104CA0000060B0F5006F3FF415AF4AF6575040F280
:104CB0004911C0F6020018F033F8E06901381028F5
:104CC000FFF40DAF4AF657504FF4A571C0F602003D
:104CD00018F026F894F830000228FFF405AF4AF6E1
:104CE000575040F24B11C0F6020018F019F86069F5
:104CF0000328FFF4FDAE4AF657504FF4A671C0F6F4
:104D0000020018F00DF894F820000228BFF4F4AE69
:104D1000FAE6000080B586B000210591CDE90311C7
:104D2000CDE90111026842F20000C4F201008242A2
:104D300001D006B080BD43F63002009100F5684016
:104D4000C4F20202536943F480735361536903F45C
:104D500080730093009B0091136843F00403136079
:104D6000126802F004020092009A0391032102915A
:104D70000C21019101A900F0F5FD06B080BD0000F5
:104D800070B5044600680D468168490544BF8068D7
:104D90005FEAC05030D400F09BFF064620680168EF
:104DA00089071AD48DB3691C0ED10168890714D400
:104DB000016889075CBF01685FEA81710DD40168F1
:104DC0008907F2D509E000BF00F082FF801BA842EE
:104DD0001BD8206801688907F6D56FF012010160C1
:104DE000216C41F400712164816811F0405F01D1B0
:104DF000217E99B1002070BD002084F83C00206C19
:104E000040F020002064012070BD002084F83C00A8
:104E1000206C40F004002064032070BDC16A11F4CE
:104E2000700F02D080684005E4D4206C20F48070BC
:104E30002064206CC004DDD4206C40F001002064AC
:104E4000002070BD10B582B0044600200190207E85
:104E5000022807D34AF6575040F2D521C0F6020087
:104E600017F05EFFE06A4FEA3070042807D34AF675
:104E7000575040F2D621C0F6020017F051FF94F8C7
:104E80003C00012802BF022002B010BD012084F8BE
:104E90003C0020688168C9072BD181684DF6836288
:104EA000C4F21B3241F00101816041F6BC11C2F233
:104EB00000010968A1FB0212910C01EB4101019173
:104EC000019931B915E000BF0199013901910199AA
:104ED00079B1019901390191019951B101990139D2
:104EE0000191019929B10199013901910199002993
:104EF000EAD18168C90749D0216C40F2017291431F
:104F000001F5807121644168490504D5216C0122B5
:104F100062F30D312164216C0022C90444BF626C2C
:104F200022F00602002184F83C106FF02201626436
:104F3000016042F20431C4F201010B68A1F5417233
:104F4000DB060AD0904221D14FF60452CFF6FF7211
:104F5000895811F0405F19D11BE0904212D042F203
:104F60000022C4F20102904209D042F20012C4F2BF
:104F7000010290420AD10968C90607D102E0096816
:104F8000C90603D4816811F0405F02D0002002B04E
:104F900010BD816841F080418160002002B010BDE9
:104FA00090F83510022909D1052180F835100068E4
:104FB000016821F0010101600020704780214165F6
:104FC00001207047F0B581B00446002048F2B513C7
:104FD0000821009041F6BC10C1F64E33C2F2000029
:104FE0000268D4E9166037688140A2FB0325394284
:104FF0000CD0226813685B0708D5136823F00403FC
:105000001360B160616D41F0010161650121814072
:10501000394208D022685269120604D5B160616D28
:1050200041F00201616504218140394208D02268C3
:105030001268920704D5B160616D41F004016165A9
:1050400010218140394217D020680268120713D519
:10505000B16002680168520308D4C9055EBF0168E7
:1050600021F008010160216C21B905E0080344D456
:10507000216C09B120468847E16D202000FA01F239
:105080003A4247D020680368DB0643D5B26094F803
:1050900035300268052B1ED122F0160202604269EB
:1050A00022F080024261226C0AB9A26C1AB1026835
:1050B00022F0080202603F208840B060012084F89E
:1050C0003500002084F83400216D00295AD0204694
:1050D000884701B0F0BD0168520312D4C90515D448
:1050E000016821F010010160012084F835000020E2
:1050F00084F83400E16B59B90CE0A16C0029B9D1F6
:10510000BAE7080302D4616C11B903E0E16B09B19D
:1051100020468847606DA8B3606DC0072ED005217A
:10512000A80A84F8351021680A6822F001020A6092
:10513000009A0132824200921AD80A68D20717D028
:10514000009A01328242009212D80A68D2070FD028
:10515000009A0132824200920AD80A68D20707D028
:10516000009A01328242009202D80A68D207DFD147
:10517000012084F83500002084F83400E16C09B186
:105180002046884701B0F0BD2DE9F041044600F00B
:105190009FFD002C04BF0120BDE8F08146F20F41C5
:1051A00005462068C4F20201884219DC46F26F010C
:1051B000C4F2020188422CDC46F23F01C4F2020133
:1051C00088424CDC46F21001C4F20201884200F031
:1051D000808046F22801C4F20201884279D071E051
:1051E00046F26F41C4F20201884225DC46F23F419B
:1051F000C4F2020188423FDC46F21041C4F20201CF
:10520000884266D046F22841C4F20201884260D04A
:1052100058E046F29F01C4F20201884239DC46F2AE
:105220007001C4F20201884253D046F28801C4F2F0
:10523000020188424DD045E046F29F41C4F202018E
:10524000884233DC46F27041C4F20201884240D009
:1052500046F28841C4F2020188423AD032E046F276
:105260004001C4F20201884233D046F25801C4F230
:10527000020188422DD025E046F24041C4F20201ED
:10528000884226D046F25841C4F20201884220D01A
:1052900018E046F2A001C4F20201884219D046F299
:1052A000B801C4F20201884213D00BE046F2A041DB
:1052B000C4F2020188420CD046F2B841C4F20201A5
:1052C000884206D04BF20000B821C0F6020017F069
:1052D00027FD6068B0F1606F0AD04FEA7060072860
:1052E00006D34BF20000B921C0F6020017F018FDFA
:1052F000A068002818BF402822D1E06840F4007060
:10530000B0F5007F2BD1206940F48060B0F5806F4C
:1053100032D16069002818BFB0F5006F39D0B0F500
:10532000805F36D04BF20000BD21C0F6020017F0BE
:10533000F7FCA069002818BFB0F5005F30D0EFE09F
:105340008028DAD04BF20000BA21C0F6020017F034
:10535000E7FCE06840F40070B0F5007FD3D04BF27A
:105360000000BB21C0F6020017F0DAFC206940F40F
:105370008060B0F5806FCCD04BF20000BC21C0F64D
:10538000020017F0CDFC6069002818BFB0F5006F6F
:10539000C5D1A069002818BFB0F5005F40F0C080FB
:1053A000E069002818BF202840F0CB80206A4FEA2F
:1053B0003040042806D34BF20000C021C0F60200A2
:1053C00017F0AEFC606A00B3042808D04BF200006E
:1053D000C121C0F6020017F0A3FC606AA8B1A06A60
:1053E000042880F0C080E06A4FEAF050042880F082
:1053F000C780206B4FEA7050042806D34BF20000A0
:10540000C821C0F6020017F08BFC022084F835009A
:10541000002084F834002168086820F0010008604A
:105420000868C00704D110E021680868C0070CD0E4
:1054300000F04EFC401B0528F6D90325202303204D
:10544000636584F83550BDE8F08148F23F02086892
:10545000D4E9013504F10C08CFF2100200EA020C85
:1054600098E8C101D4E9072E43EA0C032B43184303
:10547000636A30433843042B40EA080040EA0200E4
:1054800040EA0E0220D1D4E90BE042EA0E02BEF15E
:10549000000F40EA020008604869A26A20F0030099
:1054A00040EA020040F0040C14D0B8F5005F75D05B
:1054B000B8F1000F40F08380022A00F08480012AB6
:1054C00000F0768032B97EE00A60486920F007007B
:1054D00040EA030C6FF00F0040F2FF32C1F814C035
:1054E0000023012550FA81F091434AF6AB22CAF617
:1054F000AA225F2888BF0431A165A0FB020210091F
:1055000049F25462C0F60202105C3F22E06502FAE2
:1055100000F088600020636584F83550BDE8F081B4
:10552000B0F5804F3FF43CAF4BF20000BE21C0F617
:10553000020017F0F5FBE069002818BF20283FF4AF
:1055400035AFB0F5807F3FF431AF4BF20000BF21A3
:10555000C0F6020017F0E4FB206A4FEA304004284E
:10556000BFF429AF2EE74BF20000C621C0F60200BF
:1055700017F0D6FBE06A4FEAF0500428FFF439AF89
:105580004BF20000C721C0F6020017F0C9FB206BE8
:105590004FEA70500428BFF431AF36E7032A99D898
:1055A000012540230120DFE802F0020E0203B2E7EA
:1055B000AEF1C070B0FA80F0400948B98AE7032A1A
:1055C00006D37FF487AFCEF3006000283FF482AFAC
:1055D000012540230120636584F83550BDE8F08142
:1055E0002DE9F04F81B016468846044600F070FB66
:1055F000074694F83500022822D120680068C005CB
:1056000027D41021B8F1000F08BF2021D4E916508B
:1056100001FA00F9296811EA090F21D0616D00290A
:105620001CBF616D5FEAC1713AD1B8F1000F2AD099
:10563000102101FA00F0A860002001B0BDE8F08F51
:10564000002084F8340080206065012001B0BDE8AE
:10565000F08F4FF480706065012001B0BDE8F08FDD
:10566000711C51D0002E73D1616DC907D6D1202095
:105670006065002084F83400012084F835000320A0
:1056800001B0BDE8F08F302101FA00F0A8600120E0
:1056900084F83500002084F8340001B0BDE8F08FB4
:1056A000A76D00F015FB064694F83500022840F07F
:1056B00084802068016821F016010160416921F0B1
:1056C00080014161216C09B9A16C19B1016821F017
:1056D00008010160016821F0010101600068C00754
:1056E00004D170E020680068C0076CD000F0F0FAC8
:1056F000801B0528F6D920206065002084F834003E
:10570000032084F8350069E0042101220823814048
:1057100082408340676DFF077FF480AF2F683B4274
:1057200004D0666D46F001066665AB603A4204D06F
:10573000666D46F002066665AA60394204D0666D61
:1057400046F004066665A96017EA090FE2D065E72E
:10575000616DC9077FF462AF4FF0010B4FF0040A8F
:1057600000F0B6FAC01BB0423FF681AFE06D0821F1
:1057700001FA00F229680A4204D0636D43F0010384
:105780006365AA600BFA00F20A4204D0636D43F02D
:1057900002036365AA600AFA00F20A4204D0636D4C
:1057A00043F004036365AA6011EA090F04BF616D49
:1057B0005FEAC1717FF432AFD2E7002084F8340091
:1057C000802060650AE0E06D3F2101FA00F0B860DA
:1057D000012084F83500002084F83400E06D302189
:1057E00001FA00F00021A860012084F8350084F857
:1057F000341001B0BDE8F08FF0B581B00D4607461A
:10580000581E4FF6FF711E461446884207D34BF2CE
:10581000000040F29D11C0F6020017F081FA97F8DF
:105820003400012823D0012087F8340097F8350090
:10583000012819D1022087F83500002078653968E1
:10584000BA680B68402A2A4623F480230B604E6016
:1058500008BF22468A6008BF2C46CC600A6842F026
:1058600001020A6001B0F0BD002087F83400022078
:1058700001B0F0BD2DE9F0410E460446D0F8588045
:10588000581E4FF6FF711F461546884207D34BF24C
:1058900000004FF4E671C0F6020017F041FA94F8E8
:1058A0003400012839D0012084F8340094F8350000
:1058B00001282FD1022084F835000020606520687F
:1058C000A16802684029314622F4802202604760C4
:1058D00008BF2946816008BF3546C5603F22E16D9B
:1058E00002FA01F1C8F80810016841F016010160E0
:1058F000416941F080014161216C00291EBF0168AE
:1059000041F008010160016841F0010101600020DF
:10591000BDE8F081002084F834000220BDE8F08169
:10592000B0B5044600F0D4F9054641F2C400611C4C
:10593000C2F20000007818BF044400BF00F0C8F9AC
:10594000401BA042FAD3B0BD7047000043F614419B
:10595000C4F201010A68024214BF08607047FFF7F1
:10596000F3BF00002DE9F04F83B0054600F13E4043
:105970000C4600F1FF704FEAB026092E06D34AF616
:10598000C770B321C0F6020017F0CAF920680021E1
:10599000B1EB104F01D180B230B94AF6C770B421D3
:1059A000C0F6020017F0BCF94FF6FF716068C1F253
:1059B000100188420BDC122800F22581012101FA36
:1059C00000F00F21C0F20601084226D11BE14FF67C
:1059D000FF71C1F2210188420FDC0021C1F21101E7
:1059E00088421AD00021C1F21201884215D000214C
:1059F000C1F22101884210D005E10021C1F222014B
:105A000088420AD00021C1F23101884205D000212C
:105A1000C1F23201884240F0F680A068032806D324
:105A20004AF6C770B621C0F6020017F079F941F6C0
:105A3000004008214FF0010C4FF0000B4FF0000A1E
:105A40004FF00009C4F20200854208BF072104F1AB
:105A50001000072E38BF31460091019020680CFAE3
:105A600009F6304211D100BF09F101090BF1020B17
:105A70000AF1040AB9F1100F04BF03B0BDE8F08FBA
:105A800020680CFA09F63042EED0606840F0100150
:105A9000122929D101980068102806D281B24BF64C
:105AA000FF7222FA01F1C9070AD14AF6C770C7216D
:105AB000C0F6020017F034F901984FF0010C02E033
:105AC00057A101EB80006FF003030AF01C010F22C5
:105AD000006803EA59038A402B4488401F6A27EA7A
